:1000000071C000008EC000008CC000008AC00000DB
:1000100088C0000086C0000084C0000082C00000CC
:1000200080C000007EC000007CC000007AC00000DC
:1000300078C0000076C0000074C0000072C00000EC
:1000400070C000006EC000006CC000006AC00000FC
:1000500068C0000066C0000064C0000062C000000C
:1000600060C000005EC000005CC000005AC000001C
:1000700058C0000056C0000054C0000052C000002C
:1000800050C000004EC000004CC000004AC000003C
:1000900048C0000046C0000044C0000042C000004C
:1000A00040C000003EC000003CC000003AC000005C
:1000B00038C0000036C0000034C0000032C000006C
:1000C00030C000002EC000002CC000002AC000007C
:1000D00028C0000026C0000024C0000022C000008C
:1000E00020C0000011241FBECFEFD1E2DEBFCDBF84
:1000F00000E00CBF12E0A0E0B2E0ECE0FEE000E0C7
:100100000BBF02C007900D92AE36B107D9F722E0BF
:10011000AEE6B2E001C01D92AE36B207E1F702D002
:1001200073C66ECF02D024D0FECF21E048E060E855
:1001300075E280E090E003D180E480937C0087E862
:1001400080937A000895ECE7F0E09081987F8770C3
:10015000892B8083EAE7F0E080818064808380914E
:100160007A0086FDFCCF8091780090917900089507
:100170004F925F926F927F928F929F92AF92BF92B7
:10018000FF920F931F93CF93DF93CDB7DEB7C8567F
:10019000D1090FB6F894DEBF0FBECDBF81E0D3DF2B
:1001A000BC01990F880B990B35D22AE038E240EA5E
:1001B0005BE3BCD2A9966CAF7DAF8EAF9FAFA99722
:1001C000F6D12B013C01072E000C880B990B22D293
:1001D0009B01AC01A9966CAD7DAD8EAD9FADA9978D
:1001E00019D120E030E048EC52E4A0D2E0D17F9376
:1001F0006F935F924F9288E092E09F938F931F924C
:100200000F2EF4E6FF2EF02DFF928E010F5F1F4F91
:100210001F930F9310D3C801F1D080E094DFBC018D
:10022000990F880B990BF6D12AE038E240EA5BE39C
:100230007DD2209100023091010240910202509142
:100240000302E8D020910402309105024091060299
:100250005091070244D12B013C01A9D14B015C0113
:10026000072E000C880B990BD5D19B01AC01C30163
:10027000B201D0D020E030E048EC52E457D297D120
:100280007F936F939F928F9284E392E09F938F93DB
:100290001F92FF921F930F93CED2C801AFD0A3013C
:1002A0009201A9966CAD7DAD8EAD9FADA9973ED262
:1002B0002B013C017CD14B015C01072E000C880B0B
:1002C000990BA8D19B01AC01C301B201A3D020E0DE
:1002D00030E048EC52E42AD26AD17F936F939F9228
:1002E0008F928AE592E09F938F931F92FF921F93C4
:1002F0000F93A1D2C80182D02FEF87EA91E6215057
:1003000080409040E1F700C000000FB6F894DEBFD7
:100310000FBECDBFC859DF4F0FB6F894DEBF0FBE7A
:10032000CDBFDF91CF911F910F91FF90BF90AF9004
:100330009F908F907F906F905F904F900895CF9295
:10034000DF92EF92FF92CF936B017C01C42FDC010F
:10035000CB018C529140A109B109843D904CA14040
:10036000B10508F03EC04530E0F14930D0F5222318
:1003700029F0789488E98093C10003C088E18093D4
:10038000C10060E472E48FE090E0A701960131D2F1
:10039000215031093093C5002093C4001092C2004F
:1003A000C63071F018F4C53031F01BC0C73071F0A1
:1003B000C83091F016C0E2ECF0E08081808311C07B
:1003C000E2ECF0E08081826080830BC0E2ECF0E040
:1003D00080818460808305C0E2ECF0E080818660EB
:1003E0008083CF91FF90EF90DF90CF900895909110
:1003F000C00095FFFCCF8093C6000895CF93DF9394
:10040000EC0102C02196F3DF88818111FBCFDF91DF
:10041000CF9108955058BB27AA270ED04DC13ED189
:1004200030F043D120F031F49F3F11F41EF433C17A
:100430000EF4E095E7FB29C1E92F4FD180F3BA17FD
:10044000620773078407950718F071F49EF567C17A
:100450000EF4E0950B2EBA2FA02D0B01B9019001DF
:100460000C01CA01A0011124FF27591B99F0593F23
:1004700050F4503E68F11A16F040A22F232F342F6B
:100480004427585FF3CF469537952795A795F040B9
:100490005395C9F77EF41F16BA0B620B730B840BCE
:1004A000BAF09150A1F0FF0FBB1F661F771F881F86
:1004B000C2F70EC0BA0F621F731F841F48F48795DE
:1004C00077956795B795F7959E3F08F0B3CF9395CD
:1004D000880F08F09927EE0F9795879508950CD00F
:1004E000EBC0E3D040F0DAD030F021F45F3F19F0F8
:1004F000CCC0511115C1CFC0F0D098F39923C9F3E6
:100500005523B1F3951B550BBB27AA276217730719
:10051000840738F09F5F5F4F220F331F441FAA1FCD
:10052000A9F333D00E2E3AF0E0E830D0915050408D
:10053000E695001CCAF729D0FE2F27D0660F771F3B
:10054000881FBB1F261737074807AB07B0E809F01D
:10055000BB0B802DBF01FF2793585F4F2AF09E3FB2
:10056000510568F092C0DCC05F3FECF3983EDCF3CD
:10057000869577956795B795F7959F5FC9F7880F2B
:10058000911D9695879597F90895E1E0660F771F7D
:10059000881FBB1F621773078407BA0720F0621B0E
:1005A000730B840BBA0BEE1F88F7E095089504D007
:1005B0006894B111B5C0089598D088F09F5790F015
:1005C000B92F9927B751A0F0D1F0660F771F881F78
:1005D000991F1AF0BA95C9F712C0B13081F09FD0B7
:1005E000B1E008959CC0672F782F8827B85F39F055
:1005F000B93FCCF3869577956795B395D9F73EF4D7
:1006000090958095709561957F4F8F4F9F4F08957E
:10061000E89409C097FB3EF490958095709561959C
:100620007F4F8F4F9F4F9923A9F0F92F96E9BB2752
:100630009395F695879577956795B795F111F8CFCE
:10064000FAF4BB0F11F460FF1BC06F5F7F4F8F4F39
:100650009F4F16C0882311F096E911C0772321F02F
:100660009EE8872F762F05C0662371F096E8862FC7
:1006700070E060E02AF09A95660F771F881FDAF71E
:10068000880F9695879597F9089597F99F6780E861
:1006900070E060E008959FEF80EC089500240A94D4
:1006A0001616170618060906089500240A9412164D
:1006B0001306140605060895092E0394000C11F480
:1006C000882352F0BB0F40F4BF2B11F460FF04C02D
:1006D0006F5F7F4F8F4F9F4F089557FD9058440F86
:1006E000551F59F05F3F71F04795880F97FB991F91
:1006F00061F09F3F79F0879508951216130614064E
:10070000551FF2CF4695F1DF08C0161617061806DA
:10071000991FF1CF86957105610508940895E894B5
:10072000BB2766277727CB0197F908950BD0C4CF55
:10073000B5DF28F0BADF18F0952309F0A6CFABCFCC
:100740001124EECFCADFA0F3959FD1F3950F50E0AF
:10075000551F629FF001729FBB27F00DB11D639F73
:10076000AA27F00DB11DAA1F649F6627B00DA11D19
:10077000661F829F2227B00DA11D621F739FB00DBF
:10078000A11D621F839FA00D611D221F749F33272F
:10079000A00D611D231F849F600D211D822F762FC8
:1007A0006A2F11249F5750408AF0E1F088234AF0C5
:1007B000EE0FFF1FBB1F661F771F881F9150504011
:1007C000A9F79E3F510570F060CFAACF5F3FECF3D1
:1007D000983EDCF3869577956795B795F795E795FD
:1007E0009F5FC1F7FE2B880F911D9695879597F90E
:1007F0000895A1E21A2EAA1BBB1BFD010DC0AA1F62
:10080000BB1FEE1FFF1FA217B307E407F50720F079
:10081000A21BB30BE40BF50B661F771F881F991FF4
:100820001A9469F760957095809590959B01AC013D
:10083000BD01CF0108950F931F93CF93DF93CDB7E1
:10084000DEB72E970FB6F894DEBF0FBECDBF0E8970
:100850001F89888D998D26E02C831A83098397FF41
:1008600002C080E090E801979E838D83AE01445ED4
:100870005F4F6A8D7B8DCE01019619D04D815E81CF
:1008800057FD0AC02F813885421753070CF49A018F
:10089000F801E20FF31F10822E960FB6F894DEBF18
:1008A0000FBECDBFDF91CF911F910F9108952F9271
:1008B0003F924F925F926F927F928F929F92AF92F0
:1008C000BF92CF92DF92EF92FF920F931F93CF933D
:1008D000DF93CDB7DEB72B970FB6F894DEBF0FBE10
:1008E000CDBF6C017B018A01FC01178216828381D6
:1008F00081FFBFC1CE0101963C01F6019381F70152
:1009000093FD859193FF81917F01882309F4ADC107
:10091000853239F493FD859193FF81917F01853272
:1009200021F4B60190E0D6D1E8CF912C212C312CC6
:10093000FFE1F315D8F08B3279F038F4803279F09A
:100940008332A1F4232D20611DC08D3261F08033EC
:1009500069F4232D216016C0832D8260382EE32D8B
:10096000E4603E2E2AC0F32DF8601DC037FC2DC078
:1009700020ED280F2A3040F08E32B9F436FC75C1D4
:10098000232D2064322E19C036FE06C08AE0989EC0
:10099000200D1124922E11C0EAE02E9E200D11246C
:1009A000222EF32DF0623F2E08C08C3621F4832DC9
:1009B0008068382E02C0883641F4F70193FD859196
:1009C00093FF81917F018111B3CF982F9F7D955423
:1009D000933028F40C5F1F4F9FE399830DC083363B
:1009E00031F0833771F0833509F055C020C0F8012C
:1009F000808189830E5F1F4F88248394912C53013B
:100A000012C02801F2E04F0E511CF801A080B18005
:100A100036FE03C0692D70E002C06FEF7FEFC501A5
:100A20004ED14C018201F32DFF773F2E15C02801D6
:100A300022E0420E511CF801A080B18036FE03C0B6
:100A4000692D70E002C06FEF7FEFC5012DD14C0121
:100A5000F32DF0683F2E820133FC19C0822D90E007
:100A600088169906A0F4B60180E290E033D12A946A
:100A7000F5CFF50137FC859137FE81915F01B60115
:100A800090E028D121102A9421E0821A9108811443
:100A9000910479F7E1C0843611F0893639F5F8010F
:100AA00037FE07C060817181828193810C5F1F4F87
:100AB00008C060817181072E000C880B990B0E5FB6
:100AC0001F4FF32DFF763F2E97FF09C0909580951D
:100AD000709561957F4F8F4F9F4FF0683F2E2AE0B2
:100AE00030E0A30133D1882E861844C0853731F415
:100AF000232D2F7EB22E2AE030E025C0932D997F42
:100B0000B92E8F36C1F018F4883579F0AEC0803731
:100B100019F0883721F0A9C0E92FE061BE2EB4FE9C
:100B20000DC0FB2DF460BF2E09C034FE0AC0292F72
:100B30002660B22E06C028E030E005C020E130E09B
:100B400002C020E132E0F801B7FE07C06081718188
:100B5000828193810C5F1F4F06C06081718180E0AC
:100B600090E00E5F1F4FA301F1D0882E8618FB2D59
:100B7000FF773F2E36FE0DC0232D2E7FA22E891427
:100B800058F434FE0BC032FC09C0832D8E7EA82E93
:100B900005C0B82CA32C03C0B82C01C0B92CA4FEEE
:100BA0000FC0FE01E80DF11D8081803321F49A2DE4
:100BB000997EA92E09C0A2FE06C0B394B39404C0C6
:100BC0008A2D867809F0B394A3FC10C0A0FE06C05D
:100BD000B21480F4280C922C9B180DC0B21458F457
:100BE000B60180E290E076D0B394F8CFB21418F456
:100BF0002B1802C0982C212CA4FE0FC0B60180E354
:100C000090E068D0A2FE16C0A1FC03C088E790E087
:100C100002C088E590E0B6010CC08A2D867851F0BC
:100C2000A1FE02C08BE201C080E2A7FC8DE2B6010A
:100C300090E050D0891430F4B60180E390E04AD0BF
:100C40009A94F8CF8A94F301E80DF11D8081B601E2
:100C500090E040D08110F6CF222009F44ECEB601AC
:100C600080E290E037D02A94F7CFF6018681978111
:100C700002C08FEF9FEF2B960FB6F894DEBF0FBE2A
:100C8000CDBFDF91CF911F910F91FF90EF90DF903B
:100C9000CF90BF90AF909F908F907F906F905F901C
:100CA0004F903F902F900895FC0105906150704047
:100CB0000110D8F7809590958E0F9F1F0895FC0125
:100CC0006150704001900110D8F7809590958E0F7B
:100CD0009F1F08950F931F93CF93DF93FB012381F1
:100CE00021FD03C08FEF9FEF2CC022FF16C046816D
:100CF0005781248135814217530744F4A081B18183
:100D00009D012F5F3F4F318320838C932681378154
:100D10002F5F3F4F3783268314C08B01EC01FB010B
:100D20000084F185E02D1995892BE1F6D8011696FE
:100D30008D919C911797019617969C938E93169779
:100D4000CE01DF91CF911F910F910895FA01AA274B
:100D5000283051F1203181F1E8946F936E7F6E5FFE
:100D60007F4F8F4F9F4FAF4FB1E03ED0B4E03CD0AC
:100D7000670F781F891F9A1FA11D680F791F8A1F8F
:100D8000911DA11D6A0F711D811D911DA11D20D0F6
:100D900009F468943F912AE0269F11243019305DB0
:100DA0003193DEF6CF010895462F4770405D4193A1
:100DB000B3E00FD0C9F7F6CF462F4F70405D4A33EE
:100DC00018F0495D31FD4052419302D0A9F7EACFB6
:100DD000B4E0A6959795879577956795BA95C9F7E5
:100DE00000976105710508959B01AC010A2E0694D8
:100DF0005795479537952795BA95C9F7620F731F91
:0C0E0000841F951FA01D0895F894FFCFDB
:100E0C0000002040A4703D3E5370E66E64696E672E
:100E1C00206DE56C74206166207370E66E64696EFB
:100E2C00677364656C65723A2025642E25303264D4
:100E3C0020560A00537472F86D206DE56C742061B5
:100E4C006620737472F86D73656E736F723A202539
:100E5C00642E2530326420410A00456666656B7449
:0E0E6C003A2025642E2530326420570A0000FB
:00000001FF
