:100000000C9472000C946E010C946E010C946E01B1
:100010000C946E010C946E010C946E010C946E01A4
:100020000C946E010C946E010C946E010C946E0194
:100030000C946E010C946E010C946E010C946E0184
:100040000C946E010C946E010C946E010C946E0174
:100050000C946E010C946E010C946E010C946E0164
:100060000C946E010C946E010C946E010C946E0154
:100070000C946E010C946E010C946E010C946E0144
:100080000C946E010C946E010C946E010C946E0134
:100090000C946E010C946E010C946E010C946E0124
:1000A0000C946E010C946E010C946E010C946E0114
:1000B0000C946E010C946E010C946E010C946E0104
:1000C0000C946E010C946E010C946E010C946E01F4
:1000D0000C946E010C946E010C946E010C946E01E4
:1000E0000C946E0111241FBECFEFD1E2DEBFCDBF55
:1000F00000E00CBF0E9420010C945F01F894FFCF38
:10010000FF920F931F93CF93DF93EC01F62E66239C
:1001100009F447C099230CF160E081E00E9442019C
:1001200000E010E016C061E080E00E9442018FE92B
:100130009FE00197F1F700C0000060E080E00E94BE
:1001400042018FE99FE00197F1F700C000000F5FC7
:100150001F4F0C171D073CF324C061E081E00E9493
:10016000420100E010E016C061E080E00E94420120
:100170008FE99FE00197F1F700C0000060E080E0A8
:100180000E9442018FE99FE00197F1F700C0000053
:100190000F5F1F4F882799278C1B9D0B0817190786
:1001A0001CF3F11047C0DD230CF160E083E00E94F6
:1001B000420100E010E016C061E082E00E944201CE
:1001C0008FE99FE00197F1F700C0000060E082E056
:1001D0000E9442018FE99FE00197F1F700C0000003
:1001E0000F5F1F4F0C171D073CF324C061E083E035
:1001F0000E94420100E010E016C061E082E00E942F
:1002000042018FE99FE00197F1F700C0000060E034
:1002100082E00E9442018FE99FE00197F1F700C060
:1002200000000F5F1F4F882799278C1B9D0B081715
:1002300019071CF3DF91CF911F910F91FF90089543
:100240000E946A0161E088E893E10E94800061E019
:1002500088E79CEE0E9480002FEF83E294EF21500C
:1002600080409040E1F700C0000060E088E893E142
:100270000E94800060E088E79CEE0E94800080E0A1
:0402800090E008956D
:10028400662369F045B121E030E0B90102C0660F90
:10029400771F8A95E2F7CB01842B85B9089545B180
:1002A40021E030E0B90102C0660F771F8A95E2F7BA
:0A02B400CB018095842385B90895DD
:1002BE00EC010E9473010E947201CE010E94740132
:0602CE00CE010E94700148
:0802D40084B18F6084B9089524
:0402DC000C9400007E
:0402E0000E947E00FA
:0202E40008957B
:0202E600089579
:0202E800089577
:00000001FF
