:100000000C9472000C9477020C9477020C94770293
:100010000C9477020C9477020C9477020C9477027C
:100020000C9477020C9477020C9477020C9477026C
:100030000C9477020C9477020C9477020C9477025C
:100040000C9477020C9477020C9477020C9477024C
:100050000C9477020C9477020C9477020C9477023C
:100060000C9477020C9477020C9477020C9477022C
:100070000C9477020C9477020C9477020C9477021C
:100080000C9477020C9477020C9477020C9477020C
:100090000C9477020C9477020C9477020C947702FC
:1000A0000C9477020C9477020C9477020C947702EC
:1000B0000C9477020C9477020C9477020C947702DC
:1000C0000C9477020C9477020C9477020C947702CC
:1000D0000C9477020C9477020C9477020C947702BC
:1000E0000C94770211241FBECFEFD1E2DEBFCDBF4B
:1000F00000E00CBFE4EEF0E040E019C0B791A7913A
:1001000037912791079107FD0EC097918791EF01D5
:10011000F92FE82F0BBF07900D92A217B307D9F75D
:10012000FE011BBE04C01D92A217B307E1F7E43E17
:10013000F40721F70E9440020C945702F894FFCF75
:100140004D6F76696E6720646F776E0A0D004D6F94
:1001500076696E672075700A0D004D6F76696E675F
:10016000206C6566740A0D004D6F76696E672072AB
:10017000696768740A0D004E6F74206D6F76696E42
:04018000670A0D00FD
:10018400FF920F931F93CF93DF93EC01F62E662318
:1001940009F447C099230CF160E081E00E94F70163
:1001A40000E010E016C061E080E00E94F70189EFF2
:1001B40090E00197F1F700C0000060E080E00E9449
:1001C400F70189EF90E00197F1F700C000000F5F9D
:1001D4001F4F0C171D073CF324C061E081E00E940F
:1001E400F70100E010E016C061E080E00E94F70132
:1001F40089EF90E00197F1F700C0000060E080E033
:100204000E94F70189EF90E00197F1F700C0000028
:100214000F5F1F4F882799278C1B9D0B0817190701
:100224001CF3F11047C0DD230CF160E083E00E9471
:10023400F70100E010E016C061E082E00E94F701DF
:1002440089EF90E00197F1F700C0000060E082E0E0
:100254000E94F70189EF90E00197F1F700C00000D8
:100264000F5F1F4F0C171D073CF324C061E083E0B0
:100274000E94F70100E010E016C061E082E00E94F5
:10028400F70189EF90E00197F1F700C0000060E00A
:1002940082E00E94F70189EF90E00197F1F700C036
:1002A40000000F5F1F4F882799278C1B9D0B081791
:1002B40019071CF3DF91CF911F910F91FF900895BF
:1002C400CF92DF92EF92FF920F931F93CF93DF931E
:1002D40087E690E00E944C020E94690280E00E943E
:1002E4002B028C0181E00E942B026C0182E00E94AF
:1002F4002B02EC0183E00E942B027C0148E050E0D9
:10030400B601C8010E94CC018C0148E050E0B7015D
:10031400CE010E94CC01EC010115110579F034F4F1
:1003240060E471E080E00E94140208C01016110617
:100334002CF46EE471E080E00E9414022097C1F076
:1003440054F460E0CE010E94C2006AE571E080E0EE
:100354000E94140216C01C161D069CF460E0CE0117
:100364000E94C20068E671E080E00E94140209C0A5
:1003740067E771E080E00E94140260E0C8010E9417
:10038400C200DF91CF911F910F91FF90EF90DF900A
:04039400CF90089569
:100398008617970768F4681B790B6B307105D0F0E6
:1003A800CA01880F991F880F991F840F951F0895F8
:1003B8006817790790F4861B970B0B9788F0CA018A
:1003C800880F991F880F991F840F951F9195819504
:1003D8009109089580E090E0089580E090E0089504
:0603E80080E090E00895A2
:1003EE00662369F045B121E030E0B90102C0660F25
:1003FE00771F8A95E2F7CB01842B85B9089545B115
:10040E0021E030E0B90102C0660F771F8A95E2F74E
:0A041E00CB018095842385B9089571
:10042800CF92DF92EF926B01E82E07C08FEFC81AC8
:10043800D80AE80A862F0E946202F6015E2D0E9401
:0E04480070026111F3CFEF90DF90CF90089516
:100456008770ECE7F0E09081907F892B8083EAE754
:10046600F0E080818064808380917A0086FDFCCFF5
:0A04760080917800909179000895BC
:100480000E9462012FEF83ED90E321508040904065
:08049000E1F700C00000F4CF09
:100498009093C5008093C40088E18093C10086E0F2
:0604A8008093C2000895DC
:1004AE00EC010E947C020E947B02CE010E947D0222
:0604BE00CE010E9479024C
:0E04C4009091C00095FFFCCF8093C600089574
:0E04D20080E480937C0087E880937A00089590
:0E04E00057FD03C05BBF6791089560810895CA
:0404EE000C9400006A
:0404F2000E949E00C6
:0204F600089567
:0204F800089565
:0204FA00089563
:00000001FF
