:1000000071C0000086C0000084C0000082C00000F3
:1000100080C000007EC000007CC000007AC00000EC
:1000200078C0000076C0000074C0000072C00000FC
:1000300070C000006EC000006CC000006AC000000C
:1000400068C0000066C0000064C0000062C000001C
:1000500060C000005EC000005CC000005AC000002C
:1000600058C0000056C0000054C0000052C000003C
:1000700050C000004EC000004CC000004AC000004C
:1000800048C0000046C0000044C0000042C000005C
:1000900040C000003EC000003CC000003AC000006C
:1000A00038C0000036C0000034C0000032C000007C
:1000B00030C000002EC000002CC000002AC000008C
:1000C00028C0000026C0000024C0000022C000009C
:1000D00020C000001EC000001CC000001AC00000AC
:1000E00018C0000011241FBECFEFD1E2DEBFCDBF8C
:1000F00000E00CBF12E0A0E0B2E0E0E3F7E000E0D7
:100100000BBF02C007900D92AC33B107D9F7A1D055
:100110000DC376CFCF92DF92EF92FF9285E0CBD0E6
:10012000BC01990F880B990BDFD12AE038E240EA35
:100130005BE366D26B017C0184E0BDD0BC01990F0A
:10014000880B990BD1D12AE038E240EA5BE358D220
:10015000209100023091010240910202509103026D
:10016000C3D02091040230910502409106025091C3
:1001700007021FD19B01AC01C701B60141D220E0AB
:1001800030E04AE754E43CD27CD1CB01FF90EF90C1
:10019000DF90CF9008950F931F93CF93DF93CDB748
:1001A000DEB764970FB6F894DEBF0FBECDBF8B01EC
:1001B0004AE0BE016F5F7F4F86D24AE0BE01655FB5
:1001C0007F4FC80180D288E092E069D0CE010196CD
:1001D00066D08EE092E063D081E192E060D0CE0103
:1001E0000B965DD08EE092E05AD064960FB6F894EC
:1001F000DEBF0FBECDBFDF91CF911F910F9108954C
:1002000080E480937C0087E880937A000895EF92E1
:10021000FF920F931F93CF93DF9380E04CD07C012C
:1002200081E049D0EC0182E046D08C0183E043D0EC
:10023000CE0DDF1DC00FD11F8C0F9D1F969587958A
:1002400096958795DF91CF911F910F91FF90EF9039
:100250000895D6DF45D087E690E00FD0D8DFEC01D7
:1002600059DFBE0198DF2FEF89E698E121508040E9
:100270009040E1F700C00000F1CF9093C50080935B
:10028000C40088E18093C10086E08093C200089595
:100290009091C00095FFFCCF8093C6000895CF9346
:1002A000DF93EC0102C02196F3DF88818111FBCF3F
:1002B000DF91CF9108958770ECE7F0E09081907F17
:1002C000892B8083EAE7F0E08081806480838091DD
:1002D0007A0086FDFCCF8091780090917900089596
:1002E00084B18F6084B908955058BB27AA270ED0D7
:1002F0004DC13ED130F043D120F031F49F3F11F495
:100300001EF433C10EF4E095E7FB29C1E92F4FD16C
:1003100080F3BA17620773078407950718F071F422
:100320009EF567C10EF4E0950B2EBA2FA02D0B01A0
:10033000B90190010C01CA01A0011124FF27591B2A
:1003400099F0593F50F4503E68F11A16F040A22F30
:10035000232F342F4427585FF3CF469537952795A1
:10036000A795F0405395C9F77EF41F16BA0B620BA0
:10037000730B840BBAF09150A1F0FF0FBB1F661FE7
:10038000771F881FC2F70EC0BA0F621F731F841F2A
:1003900048F4879577956795B795F7959E3F08F050
:1003A000B3CF9395880F08F09927EE0F979587950F
:1003B00008950CD0EBC0E3D040F0DAD030F021F457
:1003C0005F3F19F0CCC0511115C1CFC0F0D098F3E8
:1003D0009923C9F35523B1F3951B550BBB27AA27C6
:1003E00062177307840738F09F5F5F4F220F331F38
:1003F000441FAA1FA9F333D00E2E3AF0E0E830D004
:1004000091505040E695001CCAF729D0FE2F27D006
:10041000660F771F881FBB1F261737074807AB07D4
:10042000B0E809F0BB0B802DBF01FF2793585F4F49
:100430002AF09E3F510568F092C0DCC05F3FECF3AC
:10044000983EDCF3869577956795B795F7959F5F0E
:10045000C9F7880F911D9695879597F90895E1E062
:10046000660F771F881FBB1F621773078407BA07C1
:1004700020F0621B730B840BBA0BEE1F88F7E0951C
:10048000089504D06894B111B5C0089598D088F04B
:100490009F5790F0B92F9927B751A0F0D1F0660F70
:1004A000771F881F991F1AF0BA95C9F712C0B1308B
:1004B00081F09FD0B1E008959CC0672F782F8827E6
:1004C000B85F39F0B93FCCF3869577956795B395CA
:1004D000D9F73EF490958095709561957F4F8F4F39
:1004E0009F4F0895E89409C097FB3EF4909580953E
:1004F000709561957F4F8F4F9F4F9923A9F0F92FEA
:1005000096E9BB279395F695879577956795B79567
:10051000F111F8CFFAF4BB0F11F460FF1BC06F5F4D
:100520007F4F8F4F9F4F16C0882311F096E911C05F
:10053000772321F09EE8872F762F05C0662371F080
:1005400096E8862F70E060E02AF09A95660F771F94
:10055000881FDAF7880F9695879597F9089597F988
:100560009F6780E870E060E008959FEF80EC089559
:1005700000240A9416161706180609060895002482
:100580000A9412161306140605060895092E0394FC
:10059000000C11F4882352F0BB0F40F4BF2B11F470
:1005A00060FF04C06F5F7F4F8F4F9F4F089557FDCF
:1005B0009058440F551F59F05F3F71F04795880FD1
:1005C00097FB991F61F09F3F79F087950895121668
:1005D00013061406551FF2CF4695F1DF08C0161614
:1005E00017061806991FF1CF8695710561050894C5
:1005F0000895E894BB2766277727CB0197F90895DC
:100600000BD0C4CFB5DF28F0BADF18F0952309F07E
:10061000A6CFABCF1124EECFCADFA0F3959FD1F3C5
:10062000950F50E0551F629FF001729FBB27F00DA0
:10063000B11D639FAA27F00DB11DAA1F649F6627F5
:10064000B00DA11D661F829F2227B00DA11D621F44
:10065000739FB00DA11D621F839FA00D611D221FFE
:10066000749F3327A00D611D231F849F600D211DE2
:10067000822F762F6A2F11249F5750408AF0E1F085
:1006800088234AF0EE0FFF1FBB1F661F771F881FCE
:1006900091505040A9F79E3F510570F060CFAACF0E
:1006A0005F3FECF3983EDCF3869577956795B795B9
:1006B000F795E7959F5FC1F7FE2B880F911D9695E3
:1006C000879597F90895BB274A3031F4992322F48E
:1006D000BDE2909581959F4F01C0BB27FB01552737
:1006E000AA27880F991FAA1FA41710F0A41B83958F
:1006F0005051B9F7A05DAA3308F0A95DA193009706
:1007000079F7B111B1931192CB0100C0DC01FC016A
:10071000672F71917723E1F7329704C07C916D9335
:1007200070836291AE17BF07C8F30895F894FFCFA6
:1007300000002040A4703D3E7761747420000D0AD3
:1007400000536F6C2000746573740073756E206EB7
:100750006F7420666F756E642C2073797374656D89
:0C076000207368757420646F776E2E00A3
:00000001FF
