:1000000071C0000086C0000084C0000082C00000F3
:1000100080C000007EC000007CC000007AC00000EC
:1000200078C0000076C0000074C0000072C00000FC
:1000300070C000006EC000006CC000006AC000000C
:1000400068C0000066C0000064C0000062C000001C
:1000500060C000005EC000005CC000005AC000002C
:1000600058C0000056C0000054C0000052C000003C
:1000700050C000004EC000004CC000004AC000004C
:1000800048C0000046C0000044C0000042C000005C
:1000900040C000003EC000003CC000003AC000006C
:1000A00038C0000036C0000034C0000032C000007C
:1000B00030C000002EC000002CC000002AC000008C
:1000C00028C0000026C0000024C0000022C000009C
:1000D00020C000001EC000001CC000001AC00000AC
:1000E00018C0000011241FBECFEFD1E2DEBFCDBF8C
:1000F00000E00CBF12E0A0E0B2E0E0EAF4E000E0D3
:100100000BBF02C007900D92A030B107D9F75FD0A6
:10011000C5C176CF80E480937C0087E880937A0025
:1001200008958617970788F4681B790B6B30710563
:1001300018F1CA01880F991F440F551F440F551F0E
:10014000440F551F840F951F089568177907B8F459
:10015000861B970B0B97B0F0CA01880F991F440FAD
:10016000551F440F551F440F551F480F591F88270F
:100170009927841B950B089580E090E0089580E016
:1001800090E0089580E090E00895EF92FF920F9341
:100190001F93CF93DF9380E048D07C0181E045D06E
:1001A000EC0182E042D08C0183E03FD0CE0DDF1D18
:1001B000C00FD11F8C0F9D1F96958795969587959B
:1001C000DF91CF911F910F91FF90EF9008952FEF46
:1001D0008FE493EC215080409040E1F700C0000094
:1001E00099DF6CD087E690E015D01DD12FEF83E228
:1001F00094EF215080409040E1F700C000002AD0E9
:100200002FEF89E698E1215080409040E1F700C04F
:100210000000F5CF9093C5008093C40088E18093DF
:10022000C10086E08093C20008958770ECE7F0E09B
:100230009081907F892B8083EAE7F0E08081806461
:10024000808380917A0086FDFCCF80917800909128
:1002500079000895CF92DF92EF92FF920F931F9350
:10026000CF93DF9380E0E1DF8C0181E0DEDF6C0182
:1002700082E0DBDFEC0183E0D8DF7C0148E050E086
:10028000B601C8014EDF8C0148E050E0B701CE0155
:1002900048DFEC010115110519F061E0C8012FD00C
:1002A000209719F060E0CE012AD0DF91CF911F9105
:1002B0000F91FF90EF90DF90CF90089584B18F6001
:1002C00084B90895662369F045B121E030E0B901B1
:1002D00002C0660F771F8A95E2F7CB01842B85B9A0
:1002E000089545B121E030E0B90102C0660F771FE3
:1002F0008A95E2F7CB018095842385B90895FF9212
:100300000F931F93CF93DF93EC01F62E662309F42E
:1003100041C09923F4F060E081E0D4DF00E010E018
:1003200014C061E080E0CEDF8FE99FE00197F1F734
:1003300000C0000060E080E0C5DF8FE99FE001972A
:10034000F1F700C000000F5F1F4F0C171D074CF3A3
:1003500021C061E081E0B6DF00E010E014C061E0A0
:1003600080E0B0DF8FE99FE00197F1F700C0000067
:1003700060E080E0A7DF8FE99FE00197F1F700C020
:1003800000000F5F1F4F882799278C1B9D0B0817B4
:1003900019072CF3F11041C0DD23F4F060E083E095
:1003A00091DF00E010E014C061E082E08BDF8FE9B4
:1003B0009FE00197F1F700C0000060E082E082DF7B
:1003C0008FE99FE00197F1F700C000000F5F1F4F1A
:1003D0000C171D074CF321C061E083E073DF00E0E0
:1003E00010E014C061E082E06DDF8FE99FE00197CB
:1003F000F1F700C0000060E082E064DF8FE99FE079
:100400000197F1F700C000000F5F1F4F8827992761
:100410008C1B9D0B081719072CF3DF91CF911F91AF
:100420000F91FF900895EF92FF920F931F93CF9338
:10043000DF93E12CF12C00E117E2C0E0D0E00CC02A
:10044000A4DE8017910718F4EC2EFD2E8C0161E0DC
:1004500081E090E054DF2196CA3A25E0D20780F38C
:1004600061E086E59AEF4BDF8FEF97EA21E6815056
:1004700090402040E1F700C0000061E08E2D9F2DEC
:100480003EDF8FE19EE40197F1F700C00000DF91AD
:10049000CF911F910F91FF90EF900895F894FFCFA7
:00000001FF
