:1000000071C0000086C0000084C0000082C00000F3
:1000100080C000007EC000007CC000007AC00000EC
:1000200078C0000076C0000074C0000072C00000FC
:1000300070C000006EC000006CC000006AC000000C
:1000400068C0000066C0000064C0000062C000001C
:1000500060C000005EC000005CC000005AC000002C
:1000600058C0000056C0000054C0000052C000003C
:1000700050C000004EC000004CC000004AC000004C
:1000800048C0000046C0000044C0000042C000005C
:1000900040C000003EC000003CC000003AC000006C
:1000A00038C0000036C0000034C0000032C000007C
:1000B00030C000002EC000002CC000002AC000008C
:1000C00028C0000026C0000024C0000022C000009C
:1000D00020C000001EC000001CC000001AC00000AC
:1000E00018C0000011241FBECFEFD1E2DEBFCDBF8C
:1000F00000E00CBF12E0A0E0B2E0EEE2F5E000E0CC
:100100000BBF02C007900D92A433B107D9F77ED080
:100110000CC276CF83E192E0AED02FEF81EE94E077
:10012000215080409040E1F700C0000086E092E05E
:10013000A2D083E192E09FD02FEF81EE94E0215096
:1001400080409040E1F700C0000086E092E093C05C
:10015000089580E480937C0087E880937A00089576
:100160008617970788F4681B790B6B30710518F1B7
:10017000CA01880F991F440F551F440F551F440F84
:10018000551F840F951F089568177907B8F4861BCB
:10019000970B0B97B0F0CA01880F991F440F551F9A
:1001A000440F551F440F551F480F591F8827992783
:1001B000841B950B089580E090E0089580E090E026
:1001C000089580E090E00895EF92FF920F931F93BF
:1001D000CF93DF9380E05BD07C0181E058D0EC01CD
:1001E00082E055D08C0183E052D0CE0DDF1DC00FD0
:1001F000D11F8C0F9D1F9695879596958795DF91BA
:10020000CF911F910F91FF90EF9008952FEF8FE402
:1002100093EC215080409040E1F700C0000099DF4E
:1002200094D087E690E015D045D12FEF83E294EF8C
:10023000215080409040E1F700C000003ED02FEFF9
:1002400089E698E1215080409040E1F700C000002D
:10025000F5CF9093C5008093C40088E18093C100DE
:1002600086E08093C20008959091C00095FFFCCF76
:100270008093C6000895CF93DF93EC0102C02196CE
:10028000F3DF88818111FBCFDF91CF9108958770D3
:10029000ECE7F0E09081907F892B8083EAE7F0E043
:1002A00080818064808380917A0086FDFCCF80917C
:1002B0007800909179000895FFCFCF92DF92EF926E
:1002C000FF920F931F93CF93DF9380E0E0DFEC0169
:1002D00081E0DDDF8C0182E0DADF7C0183E0D7DFC3
:1002E0006C01C13981E0D80780F0013981E018073D
:1002F00060F081E9E81681E0F80638F081E9C81677
:1003000081E0D80610F006DFD7DF48E050E0B80102
:10031000CE0126DF8C0148E050E0B601C70120DFA6
:10032000EC010115110519F061E0C8012FD02097EB
:1003300019F060E0CE012AD0DF91CF911F910F918B
:10034000FF90EF90DF90CF90089584B18F6084B9D3
:100350000895662369F045B121E030E0B90102C09B
:10036000660F771F8A95E2F7CB01842B85B9089534
:1003700045B121E030E0B90102C0660F771F8A95D0
:10038000E2F7CB018095842385B90895FF920F93FE
:100390001F93CF93DF93EC01F62E662309F441C03F
:1003A0009923F4F060E081E0D4DF00E010E014C0B5
:1003B00061E080E0CEDF8FE99FE00197F1F700C0B8
:1003C000000060E080E0C5DF8FE99FE00197F1F772
:1003D00000C000000F5F1F4F0C171D074CF321C01A
:1003E00061E081E0B6DF00E010E014C061E080E091
:1003F000B0DF8FE99FE00197F1F700C0000060E0F7
:1004000080E0A7DF8FE99FE00197F1F700C00000CF
:100410000F5F1F4F882799278C1B9D0B0817190703
:100420002CF3F11041C0DD23F4F060E083E091DFB4
:1004300000E010E014C061E082E08BDF8FE99FE014
:100440000197F1F700C0000060E082E082DF8FE9F1
:100450009FE00197F1F700C000000F5F1F4F0C17DE
:100460001D074CF321C061E083E073DF00E010E082
:1004700014C061E082E06DDF8FE99FE00197F1F742
:1004800000C0000060E082E064DF8FE99FE0019738
:10049000F1F700C000000F5F1F4F882799278C1BC2
:1004A0009D0B081719072CF3DF91CF911F910F9126
:1004B000FF900895EF92FF920F931F93CF93DF93D6
:1004C000E12CF12C00E117E2C0E0D0E00CC07CDEB2
:1004D0008017910718F4EC2EFD2E8C0161E081E06D
:1004E00090E054DF2196CA3A25E0D20780F361E01C
:1004F00086E59AEF4BDF8FEF97EA21E68150904037
:100500002040E1F700C0000061E08E2D9F2D3EDF0E
:100510008FE19EE40197F1F700C00000DF91CF91D9
:0E0520001F910F91FF90EF900895F894FFCF78
:10052E007761747420000D0A00536F6C200074659F
:10053E0073740073756E206E6F7420666F756E64C3
:10054E002C2073797374656D207368757420646FD5
:04055E00776E2E0086
:00000001FF
