S016000041546D656761323536305F5354532E73726563B9
S113000071C0000086C0000084C0000082C00000EF
S113001080C000007EC000007CC000007AC00000E8
S113002078C0000076C0000074C0000072C00000F8
S113003070C000006EC000006CC000006AC0000008
S113004068C0000066C0000064C0000062C0000018
S113005060C000005EC000005CC000005AC0000028
S113006058C0000056C0000054C0000052C0000038
S113007050C000004EC000004CC000004AC0000048
S113008048C0000046C0000044C0000042C0000058
S113009040C000003EC000003CC000003AC0000068
S11300A038C0000036C0000034C0000032C0000078
S11300B030C000002EC000002CC000002AC0000088
S11300C028C0000026C0000024C0000022C0000098
S11300D020C000001EC000001CC000001AC00000A8
S11300E018C0000011241FBECFEFD1E2DEBFCDBF88
S11300F000E00CBF12E0A0E0B2E0ECE9F9E000E0BF
S11301000BBF02C007900D92A631B107D9F73AD1BF
S113011043C476CFCF92DF92EF92FF9285E090E0D6
S113012073D0BC01990F880B990B14D32AE038E2E1
S113013040EA5BE39BD36B017C0184E090E064D0F4
S1130140BC01990F880B990B05D32AE038E240EAE9
S11301505BE38CD3209100023091010240910202B2
S113016050910302F7D1209104023091050240918D
S113017006025091070253D29B01AC01C701B6019C
S113018075D3B5D2CB01FF90EF90DF90CF90089557
S11301900F931F93CF93DF93CDB7DEB764970FB65A
S11301A0F894DEBF0FBECDBF8B014AE0BE016F5F86
S11301B07F4FBFD34AE0BE01655F7F4FC801B9D30B
S11301C088E092E006D1CE01019603D18EE092E060
S11301D000D181E192E0FDD0CE010B96FAD08EE001
S11301E092E0F7D064960FB6F894DEBF0FBECDBF91
S11301F0DF91CF911F910F91089580E480937C004B
S113020087E880937A0008958770ECE7F0E09081A6
S1130210907F892B8083EAE7F0E08081806480838B
S113022080917A0086FDFCCF8091780090917900CE
S113023008958617970788F4681B790B6B3071054E
S113024000F1BA0180E090E083D226E535E545E08F
S113025051E40CD351D2CB01089568177907A0F467
S1130260861B970B0B9798F0BA0180E090E070D250
S113027026E535E545E051E4F9D290583DD2CB016D
S1130280089580E090E0089580E090E0089580E093
S113029090E00895CF92DF92EF92FF920F931F9315
S11302A0CF93DF9387E690E082D0A7DF80E0ACDFD6
S11302B0EC0181E0A9DF6C0182E0A6DF8C0183E020
S11302C0A3DF7C0148E050E0B601CE01B2DFEC01CF
S11302D048E050E0B701C801ACDF8C01209771F011
S11302E02CF461E070E0CE01A1D00CC01C161D06F8
S11302F04CF461E070E0CE0199D004C060E070E09D
S1130300CE0194D00115110571F02CF460E070E079
S1130310C8018CD00CC0101611064CF460E070E0DB
S1130320C80184D004C060E070E0CE017FD0DF91CA
S1130330CF911F910F91FF90EF90DF90CF90089590
S1130340EF92FF920F931F93CF93DF9380E05CDFD4
S11303507C0181E059DFEC0182E056DF8C0183E00F
S113036053DFCE0DDF1DC00FD11F8C0F9D1F96953F
S1130370879596958795DF91CF911F910F91FF9067
S1130380EF9008953ADF31D087E690E010D082DF15
S1130390D7DFEC01BFDEBE01FBDE2FEF87EA91E67B
S11303A0215080409040E1F700C00000F0CF9093CE
S11303B0C5008093C40088E18093C10086E08093E7
S11303C0C20008959091C00095FFFCCF8093C600B1
S11303D00895CF93DF93EC0102C02196F3DF888167
S11303E08111FBCFDF91CF91089584B18F6084B9DF
S11303F00895662369F045B121E030E0B90102C0F7
S1130400660F771F8A95E2F7CB01842B85B908958F
S113041045B121E030E0B90102C0660F771F8A952B
S1130420E2F7CB018095842385B90895FF920F9359
S11304301F93CF93DF93EC01F62E662309F441C09A
S11304409923F4F060E081E0D4DF00E010E014C010
S113045061E080E0CEDF8FE99FE00197F1F700C013
S1130460000060E080E0C5DF8FE99FE00197F1F7CD
S113047000C000000F5F1F4F0C171D074CF321C075
S113048061E081E0B6DF00E010E014C061E080E0EC
S1130490B0DF8FE99FE00197F1F700C0000060E052
S11304A080E0A7DF8FE99FE00197F1F700C000002B
S11304B00F5F1F4F882799278C1B9D0B081719075F
S11304C02CF3F11041C0DD23F4F060E083E091DF10
S11304D000E010E014C061E082E08BDF8FE99FE070
S11304E00197F1F700C0000060E082E082DF8FE94D
S11304F09FE00197F1F700C000000F5F1F4F0C173A
S11305001D074CF321C061E083E073DF00E010E0DD
S113051014C061E082E06DDF8FE99FE00197F1F79D
S113052000C0000060E082E064DF8FE99FE0019793
S1130530F1F700C000000F5F1F4F882799278C1B1D
S11305409D0B081719072CF3DF91CF911F910F9181
S1130550FF9008955058BB27AA270ED04DC13ED115
S113056030F043D120F031F49F3F11F41EF433C135
S11305700EF4E095E7FB29C1E92F4FD180F3BA17B8
S1130580620773078407950718F071F49EF567C135
S11305900EF4E0950B2EBA2FA02D0B01B90190019A
S11305A00C01CA01A0011124FF27591B99F0593FDE
S11305B050F4503E68F11A16F040A22F232F342F26
S11305C04427585FF3CF469537952795A795F04074
S11305D05395C9F77EF41F16BA0B620B730B840B89
S11305E0BAF09150A1F0FF0FBB1F661F771F881F41
S11305F0C2F70EC0BA0F621F731F841F48F4879599
S113060077956795B795F7959E3F08F0B3CF939587
S1130610880F08F09927EE0F9795879508950CD0C9
S1130620EBC0E3D040F0DAD030F021F45F3F19F0B2
S1130630CCC0511115C1CFC0F0D098F39923C9F3A0
S11306405523B1F3951B550BBB27AA2762177307D4
S1130650840738F09F5F5F4F220F331F441FAA1F88
S1130660A9F333D00E2E3AF0E0E830D09150504048
S1130670E695001CCAF729D0FE2F27D0660F771FF6
S1130680881FBB1F261737074807AB07B0E809F0D8
S1130690BB0B802DBF01FF2793585F4F2AF09E3F6D
S11306A0510568F092C0DCC05F3FECF3983EDCF388
S11306B0869577956795B795F7959F5FC9F7880FE6
S11306C0911D9695879597F90895E1E0660F771F38
S11306D0881FBB1F621773078407BA0720F0621BC9
S11306E0730B840BBA0BEE1F88F7E095089504D0C2
S11306F06894B111B5C0089598D088F09F5790F0D0
S1130700B92F9927B751A0F0D1F0660F771F881F32
S1130710991F1AF0BA95C9F712C0B13081F09FD071
S1130720B1E008959CC0672F782F8827B85F39F00F
S1130730B93FCCF3869577956795B395D9F73EF491
S113074090958095709561957F4F8F4F9F4F089539
S1130750E89409C097FB3EF4909580957095619557
S11307607F4F8F4F9F4F9923A9F0F92F96E9BB270D
S11307709395F695879577956795B795F111F8CF89
S1130780FAF4BB0F11F460FF1BC06F5F7F4F8F4FF4
S11307909F4F16C0882311F096E911C0772321F0EA
S11307A09EE8872F762F05C0662371F096E8862F82
S11307B070E060E02AF09A95660F771F881FDAF7D9
S11307C0880F9695879597F9089597F99F6780E81C
S11307D070E060E008959FEF80EC089500240A948F
S11307E01616170618060906089500240A94121608
S11307F01306140605060895092E0394000C11F43B
S1130800882352F0BB0F40F4BF2B11F460FF04C0E7
S11308106F5F7F4F8F4F9F4F089557FD9058440F40
S1130820551F59F05F3F71F04795880F97FB991F4B
S113083061F09F3F79F08795089512161306140608
S1130840551FF2CF4695F1DF08C016161706180695
S1130850991FF1CF86957105610508940895E89470
S1130860BB2766277727CB0197F908950BD0C4CF10
S1130870B5DF28F0BADF18F0952309F0A6CFABCF87
S11308801124EECFCADFA0F3959FD1F3950F50E06A
S1130890551F629FF001729FBB27F00DB11D639F2E
S11308A0AA27F00DB11DAA1F649F6627B00DA11DD4
S11308B0661F829F2227B00DA11D621F739FB00D7A
S11308C0A11D621F839FA00D611D221F749F3327EA
S11308D0A00D611D231F849F600D211D822F762F83
S11308E06A2F11249F5750408AF0E1F088234AF080
S11308F0EE0FFF1FBB1F661F771F881F91505040CC
S1130900A9F79E3F510570F060CFAACF5F3FECF38B
S1130910983EDCF3869577956795B795F795E795B7
S11309209F5FC1F7FE2B880F911D9695879597F9C8
S11309300895BB274A3031F4992322F4BDE29095FF
S113094081959F4F01C0BB27FB015527AA27880F1C
S1130950991FAA1FA41710F0A41B83955051B9F72F
S1130960A05DAA3308F0A95DA193009779F7B111AE
S1130970B1931192CB0100C0DC01FC01672F71918E
S11309807723E1F7329704C07C916D937083629171
S10F0990AE17BF07C8F30895F894FFCF1A
S113099C00002040A4703D3E7761747420000D0A61
S10909AC00536F6C2000F3
S9030000FC
